:1000000000308A0052280000FF00030E8301A10087
:100010000A08A0008A010408A2007708A300780853
:10002000A4007908A5007A08A600831383128C30F7
:100030008400801E1D288C1A2E2822088400230884
:10004000F7002408F8002508F9002608FA0020081F
:100050008A00210E8300FF0E7F0E09008A110A120A
:1000600031288C1E31281A08A70027080C1E3628B4
:1000700099008C128A110A121D282F3084008313D4
:100080000008031951280130F800F701F70B462842
:10009000F80B45284A30F700F70B4C284F28800B07
:1000A0004328080003081F398300831603178711AC
:1000B000193003139900A6309800903083129800ED
:1000C000FF30A800831603170908C03989000313FD
:1000D0001F129F12003003178800831287018801C6
:1000E000890183130313A901AA01AB01AC01AD017E
:1000F000AE010030831686008312860183168500C8
:100100008312850183168C16C03083128B041F1353
:100110009F1783169F1383121F1428112808831614
:100120008700831207110C30970083169B019C01F6
:1001300001309D008312A8102808831687008312BF
:1001400087100C309D006430AF003D200030F80077
:1001500006389200FF308316920083122708613A16
:100160000319E328033A0319EA28013A0319F2288C
:10017000073A0319FA28013A03190229033A031925
:100180000929013A031911290F3A03191929013ACA
:1001900003192129033A03192829013A03192E29A1
:1001A000073A03193529013A03193C29033A03197F
:1001B0004329013A031949291F3A03195029013AE1
:1001C000031957295E29FA3095009B000130AF00D2
:1001D0003D206429FA309500AF309B000130AF001C
:1001E0003D206429FA30950064309B000130AF0057
:1001F0003D206429AF309500FA309B000130AF00FC
:100200003D206429AF3095009B000130AF003D20B8
:100210006429AF30950064309B000130AF003D2071
:10022000642964309500FA309B000130AF003D2016
:10023000642964309500AF309B000130AF003D2051
:100240006429643095009B000130AF003D20642993
:10025000AE01AB01FA30AF003D206429AE010130A0
:10026000AB00FA30AF003D2064290130AE00AB0195
:10027000FA30AF003D2064290130AE00AB00FA3007
:10028000AF003D206429AD01AC01FA30AF003D2044
:100290006429AD010130AC00FA30AF003D20642983
:1002A0000130AD00AC01FA30AF003D2064290130CF
:1002B000AD00AC00FA30AF003D206429FF3095005E
:1002C0009B000130AF003D202E0803196B29013A35
:1002D000031974297C292908073C031C7229013061
:1002E000A9077329A9017C292908033C031C7B2940
:1002F0000130A9077C29A9012D0803198329013A96
:1003000003198C2994292A08073C031C8A290130E7
:10031000AA078B29AA0194292A08033C031C9329C4
:100320000130AA079429AA01AB08031DCA2929088C
:100330000319B029013A0319B329033A0319B6295D
:10034000013A0319B929073A0319BC29013A0319DB
:10035000BF29033A0319C129013A0319C429C7293E
:1003600038308500C92907308500C9292830850023
:10037000C92905308500C92930308500C9290630D2
:10038000850018308500C92903308500C929083047
:100390008500FC2929080319E329013A0319E629F4
:1003A000033A0319E929013A0319EC29073A031919
:1003B000EF29013A0319F229033A0319F529013A01
:1003C0000319F829FA291F308500FC2936308500E9
:1003D000FC292D308500FC2924308500FC291B30A8
:1003E0008500FC2909308500FC293B308500FC296B
:1003F0001230850009308500AC08031D322A2A0816
:100400000319182A013A03191B2A033A03191E2A51
:10041000013A0319212A073A0319242A013A031938
:10042000272A033A0319292A013A03192C2A2F2AC9
:1004300038308600312A07308600312A283086007D
:10044000312A05308600312A30308600312A0630C4
:10045000860018308600312A03308600312A0130A8
:100460008600642A2A0803194B2A013A03194E2AE6
:10047000033A0319512A013A0319542A073A031976
:10048000572A013A03195A2A033A03195D2A013AF5
:100490000319602A622A1F308600642A36308600DB
:1004A000642A2D308600642A24308600642A1B309A
:1004B0008600642A09308600642A3B308600642A5C
:0C04C0001230860009308600AE28630070
:04400E00E12FFF3F60
:00000001FF
;PIC16F887
;CRC=CF1C  CREATED="02-feb.-21 16:28"
